{
  "_format": "hh-sol-artifact-1",
  "contractName": "WeddingRing",
  "sourceName": "contracts/WeddingRing.sol",
  "abi": [
    {
      "inputs": [],
      "stateMutability": "nonpayable",
      "type": "constructor"
    },
    {
      "anonymous": false,
      "inputs": [
        {
          "indexed": true,
          "internalType": "address",
          "name": "owner",
          "type": "address"
        },
        {
          "indexed": true,
          "internalType": "address",
          "name": "approved",
          "type": "address"
        },
        {
          "indexed": true,
          "internalType": "uint256",
          "name": "tokenId",
          "type": "uint256"
        }
      ],
      "name": "Approval",
      "type": "event"
    },
    {
      "anonymous": false,
      "inputs": [
        {
          "indexed": true,
          "internalType": "address",
          "name": "owner",
          "type": "address"
        },
        {
          "indexed": true,
          "internalType": "address",
          "name": "operator",
          "type": "address"
        },
        {
          "indexed": false,
          "internalType": "bool",
          "name": "approved",
          "type": "bool"
        }
      ],
      "name": "ApprovalForAll",
      "type": "event"
    },
    {
      "anonymous": false,
      "inputs": [
        {
          "indexed": true,
          "internalType": "address",
          "name": "previousOwner",
          "type": "address"
        },
        {
          "indexed": true,
          "internalType": "address",
          "name": "newOwner",
          "type": "address"
        }
      ],
      "name": "OwnershipTransferred",
      "type": "event"
    },
    {
      "anonymous": false,
      "inputs": [
        {
          "indexed": true,
          "internalType": "address",
          "name": "from",
          "type": "address"
        },
        {
          "indexed": true,
          "internalType": "address",
          "name": "to",
          "type": "address"
        },
        {
          "indexed": true,
          "internalType": "uint256",
          "name": "tokenId",
          "type": "uint256"
        }
      ],
      "name": "Transfer",
      "type": "event"
    },
    {
      "inputs": [
        {
          "internalType": "address",
          "name": "to",
          "type": "address"
        },
        {
          "internalType": "uint256",
          "name": "tokenId",
          "type": "uint256"
        }
      ],
      "name": "approve",
      "outputs": [],
      "stateMutability": "nonpayable",
      "type": "function"
    },
    {
      "inputs": [
        {
          "internalType": "address",
          "name": "owner",
          "type": "address"
        }
      ],
      "name": "balanceOf",
      "outputs": [
        {
          "internalType": "uint256",
          "name": "",
          "type": "uint256"
        }
      ],
      "stateMutability": "view",
      "type": "function"
    },
    {
      "inputs": [
        {
          "internalType": "uint256",
          "name": "tokenId",
          "type": "uint256"
        }
      ],
      "name": "burn",
      "outputs": [],
      "stateMutability": "nonpayable",
      "type": "function"
    },
    {
      "inputs": [
        {
          "internalType": "uint256",
          "name": "tokenId",
          "type": "uint256"
        }
      ],
      "name": "getApproved",
      "outputs": [
        {
          "internalType": "address",
          "name": "",
          "type": "address"
        }
      ],
      "stateMutability": "view",
      "type": "function"
    },
    {
      "inputs": [
        {
          "internalType": "address",
          "name": "owner",
          "type": "address"
        },
        {
          "internalType": "address",
          "name": "operator",
          "type": "address"
        }
      ],
      "name": "isApprovedForAll",
      "outputs": [
        {
          "internalType": "bool",
          "name": "",
          "type": "bool"
        }
      ],
      "stateMutability": "view",
      "type": "function"
    },
    {
      "inputs": [
        {
          "internalType": "address",
          "name": "to",
          "type": "address"
        },
        {
          "internalType": "string",
          "name": "uri",
          "type": "string"
        }
      ],
      "name": "mint",
      "outputs": [
        {
          "internalType": "uint256",
          "name": "",
          "type": "uint256"
        }
      ],
      "stateMutability": "nonpayable",
      "type": "function"
    },
    {
      "inputs": [],
      "name": "name",
      "outputs": [
        {
          "internalType": "string",
          "name": "",
          "type": "string"
        }
      ],
      "stateMutability": "view",
      "type": "function"
    },
    {
      "inputs": [],
      "name": "owner",
      "outputs": [
        {
          "internalType": "address",
          "name": "",
          "type": "address"
        }
      ],
      "stateMutability": "view",
      "type": "function"
    },
    {
      "inputs": [
        {
          "internalType": "uint256",
          "name": "tokenId",
          "type": "uint256"
        }
      ],
      "name": "ownerOf",
      "outputs": [
        {
          "internalType": "address",
          "name": "",
          "type": "address"
        }
      ],
      "stateMutability": "view",
      "type": "function"
    },
    {
      "inputs": [],
      "name": "renounceOwnership",
      "outputs": [],
      "stateMutability": "nonpayable",
      "type": "function"
    },
    {
      "inputs": [
        {
          "internalType": "address",
          "name": "from",
          "type": "address"
        },
        {
          "internalType": "address",
          "name": "to",
          "type": "address"
        },
        {
          "internalType": "uint256",
          "name": "tokenId",
          "type": "uint256"
        }
      ],
      "name": "safeTransferFrom",
      "outputs": [],
      "stateMutability": "nonpayable",
      "type": "function"
    },
    {
      "inputs": [
        {
          "internalType": "address",
          "name": "from",
          "type": "address"
        },
        {
          "internalType": "address",
          "name": "to",
          "type": "address"
        },
        {
          "internalType": "uint256",
          "name": "tokenId",
          "type": "uint256"
        },
        {
          "internalType": "bytes",
          "name": "_data",
          "type": "bytes"
        }
      ],
      "name": "safeTransferFrom",
      "outputs": [],
      "stateMutability": "nonpayable",
      "type": "function"
    },
    {
      "inputs": [
        {
          "internalType": "address",
          "name": "operator",
          "type": "address"
        },
        {
          "internalType": "bool",
          "name": "approved",
          "type": "bool"
        }
      ],
      "name": "setApprovalForAll",
      "outputs": [],
      "stateMutability": "nonpayable",
      "type": "function"
    },
    {
      "inputs": [
        {
          "internalType": "bytes4",
          "name": "interfaceId",
          "type": "bytes4"
        }
      ],
      "name": "supportsInterface",
      "outputs": [
        {
          "internalType": "bool",
          "name": "",
          "type": "bool"
        }
      ],
      "stateMutability": "view",
      "type": "function"
    },
    {
      "inputs": [],
      "name": "symbol",
      "outputs": [
        {
          "internalType": "string",
          "name": "",
          "type": "string"
        }
      ],
      "stateMutability": "view",
      "type": "function"
    },
    {
      "inputs": [
        {
          "internalType": "uint256",
          "name": "tokenId",
          "type": "uint256"
        }
      ],
      "name": "tokenURI",
      "outputs": [
        {
          "internalType": "string",
          "name": "",
          "type": "string"
        }
      ],
      "stateMutability": "view",
      "type": "function"
    },
    {
      "inputs": [
        {
          "internalType": "address",
          "name": "from",
          "type": "address"
        },
        {
          "internalType": "address",
          "name": "to",
          "type": "address"
        },
        {
          "internalType": "uint256",
          "name": "tokenId",
          "type": "uint256"
        }
      ],
      "name": "transferFrom",
      "outputs": [],
      "stateMutability": "nonpayable",
      "type": "function"
    },
    {
      "inputs": [
        {
          "internalType": "address",
          "name": "newOwner",
          "type": "address"
        }
      ],
      "name": "transferOwnership",
      "outputs": [],
      "stateMutability": "nonpayable",
      "type": "function"
    }
  ],
  "bytecode": "0x60806040523480156200001157600080fd5b506040518060400160405280600b81526020017f57656464696e6752696e670000000000000000000000000000000000000000008152506040518060400160405280600481526020017f52494e4700000000000000000000000000000000000000000000000000000000815250816000908051906020019062000096929190620001d3565b508060019080519060200190620000af929190620001d3565b505050620000d2620000c6620000ef60201b60201c565b620000f760201b60201c565b620000e96008620001bd60201b62000c7b1760201c565b620002e8565b600033905090565b6000600760009054906101000a900473ffffffffffffffffffffffffffffffffffffffff16905081600760006101000a81548173ffffffffffffffffffffffffffffffffffffffff021916908373ffffffffffffffffffffffffffffffffffffffff1602179055508173ffffffffffffffffffffffffffffffffffffffff168173ffffffffffffffffffffffffffffffffffffffff167f8be0079c531659141344cd1fd0a4f28419497f9722a3daafe3b4186f6b6457e060405160405180910390a35050565b6001816000016000828254019250508190555050565b828054620001e19062000283565b90600052602060002090601f01602090048101928262000205576000855562000251565b82601f106200022057805160ff191683800117855562000251565b8280016001018555821562000251579182015b828111156200025057825182559160200191906001019062000233565b5b50905062000260919062000264565b5090565b5b808211156200027f57600081600090555060010162000265565b5090565b600060028204905060018216806200029c57607f821691505b60208210811415620002b357620002b2620002b9565b5b50919050565b7f4e487b7100000000000000000000000000000000000000000000000000000000600052602260045260246000fd5b61324f80620002f86000396000f3fe608060405234801561001057600080fd5b50600436106101165760003560e01c8063715018a6116100a2578063b88d4fde11610071578063b88d4fde146102cb578063c87b56dd146102e7578063d0def52114610317578063e985e9c514610347578063f2fde38b1461037757610116565b8063715018a6146102695780638da5cb5b1461027357806395d89b4114610291578063a22cb465146102af57610116565b806323b872dd116100e957806323b872dd146101b557806342842e0e146101d157806342966c68146101ed5780636352211e1461020957806370a082311461023957610116565b806301ffc9a71461011b57806306fdde031461014b578063081812fc14610169578063095ea7b314610199575b600080fd5b6101356004803603810190610130919061216c565b610393565b60405161014291906125db565b60405180910390f35b610153610475565b60405161016091906125f6565b60405180910390f35b610183600480360381019061017e91906121be565b610507565b6040516101909190612574565b60405180910390f35b6101b360048036038101906101ae9190612130565b61058c565b005b6101cf60048036038101906101ca9190611fd6565b6106a4565b005b6101eb60048036038101906101e69190611fd6565b610704565b005b610207600480360381019061020291906121be565b610724565b005b610223600480360381019061021e91906121be565b610780565b6040516102309190612574565b60405180910390f35b610253600480360381019061024e9190611f71565b610832565b6040516102609190612878565b60405180910390f35b6102716108ea565b005b61027b610972565b6040516102889190612574565b60405180910390f35b61029961099c565b6040516102a691906125f6565b60405180910390f35b6102c960048036038101906102c491906120a0565b610a2e565b005b6102e560048036038101906102e09190612025565b610a44565b005b61030160048036038101906102fc91906121be565b610aa6565b60405161030e91906125f6565b60405180910390f35b610331600480360381019061032c91906120dc565b610ab8565b60405161033e9190612878565b60405180910390f35b610361600480360381019061035c9190611f9a565b610aef565b60405161036e91906125db565b60405180910390f35b610391600480360381019061038c9190611f71565b610b83565b005b60007f80ac58cd000000000000000000000000000000000000000000000000000000007bffffffffffffffffffffffffffffffffffffffffffffffffffffffff1916827bffffffffffffffffffffffffffffffffffffffffffffffffffffffff1916148061045e57507f5b5e139f000000000000000000000000000000000000000000000000000000007bffffffffffffffffffffffffffffffffffffffffffffffffffffffff1916827bffffffffffffffffffffffffffffffffffffffffffffffffffffffff1916145b8061046e575061046d82610c91565b5b9050919050565b60606000805461048490612ace565b80601f01602080910402602001604051908101604052809291908181526020018280546104b090612ace565b80156104fd5780601f106104d2576101008083540402835291602001916104fd565b820191906000526020600020905b8154815290600101906020018083116104e057829003601f168201915b5050505050905090565b600061051282610cfb565b610551576040517f08c379a0000000000000000000000000000000000000000000000000000000008152600401610548906127b8565b60405180910390fd5b6004600083815260200190815260200160002060009054906101000a900473ffffffffffffffffffffffffffffffffffffffff169050919050565b600061059782610780565b90508073ffffffffffffffffffffffffffffffffffffffff168373ffffffffffffffffffffffffffffffffffffffff161415610608576040517f08c379a00000000000000000000000000000000000000000000000000000000081526004016105ff90612818565b60405180910390fd5b8073ffffffffffffffffffffffffffffffffffffffff16610627610d67565b73ffffffffffffffffffffffffffffffffffffffff161480610656575061065581610650610d67565b610aef565b5b610695576040517f08c379a000000000000000000000000000000000000000000000000000000000815260040161068c906126f8565b60405180910390fd5b61069f8383610d6f565b505050565b6106b56106af610d67565b82610e28565b6106f4576040517f08c379a00000000000000000000000000000000000000000000000000000000081526004016106eb90612838565b60405180910390fd5b6106ff838383610f06565b505050565b61071f83838360405180602001604052806000815250610a44565b505050565b61073561072f610d67565b82610e28565b610774576040517f08c379a000000000000000000000000000000000000000000000000000000000815260040161076b90612858565b60405180910390fd5b61077d8161116d565b50565b6000806002600084815260200190815260200160002060009054906101000a900473ffffffffffffffffffffffffffffffffffffffff169050600073ffffffffffffffffffffffffffffffffffffffff168173ffffffffffffffffffffffffffffffffffffffff161415610829576040517f08c379a000000000000000000000000000000000000000000000000000000000815260040161082090612738565b60405180910390fd5b80915050919050565b60008073ffffffffffffffffffffffffffffffffffffffff168273ffffffffffffffffffffffffffffffffffffffff1614156108a3576040517f08c379a000000000000000000000000000000000000000000000000000000000815260040161089a90612718565b60405180910390fd5b600360008373ffffffffffffffffffffffffffffffffffffffff1673ffffffffffffffffffffffffffffffffffffffff168152602001908152602001600020549050919050565b6108f2610d67565b73ffffffffffffffffffffffffffffffffffffffff16610910610972565b73ffffffffffffffffffffffffffffffffffffffff1614610966576040517f08c379a000000000000000000000000000000000000000000000000000000000815260040161095d906127d8565b60405180910390fd5b6109706000611179565b565b6000600760009054906101000a900473ffffffffffffffffffffffffffffffffffffffff16905090565b6060600180546109ab90612ace565b80601f01602080910402602001604051908101604052809291908181526020018280546109d790612ace565b8015610a245780601f106109f957610100808354040283529160200191610a24565b820191906000526020600020905b815481529060010190602001808311610a0757829003601f168201915b5050505050905090565b610a40610a39610d67565b838361123f565b5050565b610a55610a4f610d67565b83610e28565b610a94576040517f08c379a0000000000000000000000000000000000000000000000000000000008152600401610a8b90612838565b60405180910390fd5b610aa0848484846113ac565b50505050565b6060610ab182611408565b9050919050565b600080610ac5600861155a565b9050610ad18482611568565b610adb8184611742565b610ae56008610c7b565b8091505092915050565b6000600560008473ffffffffffffffffffffffffffffffffffffffff1673ffffffffffffffffffffffffffffffffffffffff16815260200190815260200160002060008373ffffffffffffffffffffffffffffffffffffffff1673ffffffffffffffffffffffffffffffffffffffff16815260200190815260200160002060009054906101000a900460ff16905092915050565b610b8b610d67565b73ffffffffffffffffffffffffffffffffffffffff16610ba9610972565b73ffffffffffffffffffffffffffffffffffffffff1614610bff576040517f08c379a0000000000000000000000000000000000000000000000000000000008152600401610bf6906127d8565b60405180910390fd5b600073ffffffffffffffffffffffffffffffffffffffff168173ffffffffffffffffffffffffffffffffffffffff161415610c6f576040517f08c379a0000000000000000000000000000000000000000000000000000000008152600401610c6690612638565b60405180910390fd5b610c7881611179565b50565b6001816000016000828254019250508190555050565b60007f01ffc9a7000000000000000000000000000000000000000000000000000000007bffffffffffffffffffffffffffffffffffffffffffffffffffffffff1916827bffffffffffffffffffffffffffffffffffffffffffffffffffffffff1916149050919050565b60008073ffffffffffffffffffffffffffffffffffffffff166002600084815260200190815260200160002060009054906101000a900473ffffffffffffffffffffffffffffffffffffffff1673ffffffffffffffffffffffffffffffffffffffff1614159050919050565b600033905090565b816004600083815260200190815260200160002060006101000a81548173ffffffffffffffffffffffffffffffffffffffff021916908373ffffffffffffffffffffffffffffffffffffffff160217905550808273ffffffffffffffffffffffffffffffffffffffff16610de283610780565b73ffffffffffffffffffffffffffffffffffffffff167f8c5be1e5ebec7d5bd14f71427d1e84f3dd0314c0f7b2291e5b200ac8c7c3b92560405160405180910390a45050565b6000610e3382610cfb565b610e72576040517f08c379a0000000000000000000000000000000000000000000000000000000008152600401610e69906126d8565b60405180910390fd5b6000610e7d83610780565b90508073ffffffffffffffffffffffffffffffffffffffff168473ffffffffffffffffffffffffffffffffffffffff161480610ebf5750610ebe8185610aef565b5b80610efd57508373ffffffffffffffffffffffffffffffffffffffff16610ee584610507565b73ffffffffffffffffffffffffffffffffffffffff16145b91505092915050565b8273ffffffffffffffffffffffffffffffffffffffff16610f2682610780565b73ffffffffffffffffffffffffffffffffffffffff1614610f7c576040517f08c379a0000000000000000000000000000000000000000000000000000000008152600401610f7390612658565b60405180910390fd5b600073ffffffffffffffffffffffffffffffffffffffff168273ffffffffffffffffffffffffffffffffffffffff161415610fec576040517f08c379a0000000000000000000000000000000000000000000000000000000008152600401610fe390612698565b60405180910390fd5b610ff78383836117b6565b611002600082610d6f565b6001600360008573ffffffffffffffffffffffffffffffffffffffff1673ffffffffffffffffffffffffffffffffffffffff168152602001908152602001600020600082825461105291906129e4565b925050819055506001600360008473ffffffffffffffffffffffffffffffffffffffff1673ffffffffffffffffffffffffffffffffffffffff16815260200190815260200160002060008282546110a9919061295d565b92505081905550816002600083815260200190815260200160002060006101000a81548173ffffffffffffffffffffffffffffffffffffffff021916908373ffffffffffffffffffffffffffffffffffffffff160217905550808273ffffffffffffffffffffffffffffffffffffffff168473ffffffffffffffffffffffffffffffffffffffff167fddf252ad1be2c89b69c2b068fc378daa952ba7f163c4a11628f55a4df523b3ef60405160405180910390a46111688383836117bb565b505050565b611176816117c0565b50565b6000600760009054906101000a900473ffffffffffffffffffffffffffffffffffffffff16905081600760006101000a81548173ffffffffffffffffffffffffffffffffffffffff021916908373ffffffffffffffffffffffffffffffffffffffff1602179055508173ffffffffffffffffffffffffffffffffffffffff168173ffffffffffffffffffffffffffffffffffffffff167f8be0079c531659141344cd1fd0a4f28419497f9722a3daafe3b4186f6b6457e060405160405180910390a35050565b8173ffffffffffffffffffffffffffffffffffffffff168373ffffffffffffffffffffffffffffffffffffffff1614156112ae576040517f08c379a00000000000000000000000000000000000000000000000000000000081526004016112a5906126b8565b60405180910390fd5b80600560008573ffffffffffffffffffffffffffffffffffffffff1673ffffffffffffffffffffffffffffffffffffffff16815260200190815260200160002060008473ffffffffffffffffffffffffffffffffffffffff1673ffffffffffffffffffffffffffffffffffffffff16815260200190815260200160002060006101000a81548160ff0219169083151502179055508173ffffffffffffffffffffffffffffffffffffffff168373ffffffffffffffffffffffffffffffffffffffff167f17307eab39ab6107e8899845ad3d59bd9653f200f220920489ca2b5937696c318360405161139f91906125db565b60405180910390a3505050565b6113b7848484610f06565b6113c384848484611813565b611402576040517f08c379a00000000000000000000000000000000000000000000000000000000081526004016113f990612618565b60405180910390fd5b50505050565b606061141382610cfb565b611452576040517f08c379a000000000000000000000000000000000000000000000000000000000815260040161144990612798565b60405180910390fd5b600060066000848152602001908152602001600020805461147290612ace565b80601f016020809104026020016040519081016040528092919081815260200182805461149e90612ace565b80156114eb5780601f106114c0576101008083540402835291602001916114eb565b820191906000526020600020905b8154815290600101906020018083116114ce57829003601f168201915b5050505050905060006114fc6119aa565b9050600081511415611512578192505050611555565b60008251111561154757808260405160200161152f929190612550565b60405160208183030381529060405292505050611555565b611550846119c1565b925050505b919050565b600081600001549050919050565b600073ffffffffffffffffffffffffffffffffffffffff168273ffffffffffffffffffffffffffffffffffffffff1614156115d8576040517f08c379a00000000000000000000000000000000000000000000000000000000081526004016115cf90612778565b60405180910390fd5b6115e181610cfb565b15611621576040517f08c379a000000000000000000000000000000000000000000000000000000000815260040161161890612678565b60405180910390fd5b61162d600083836117b6565b6001600360008473ffffffffffffffffffffffffffffffffffffffff1673ffffffffffffffffffffffffffffffffffffffff168152602001908152602001600020600082825461167d919061295d565b92505081905550816002600083815260200190815260200160002060006101000a81548173ffffffffffffffffffffffffffffffffffffffff021916908373ffffffffffffffffffffffffffffffffffffffff160217905550808273ffffffffffffffffffffffffffffffffffffffff16600073ffffffffffffffffffffffffffffffffffffffff167fddf252ad1be2c89b69c2b068fc378daa952ba7f163c4a11628f55a4df523b3ef60405160405180910390a461173e600083836117bb565b5050565b61174b82610cfb565b61178a576040517f08c379a000000000000000000000000000000000000000000000000000000000815260040161178190612758565b60405180910390fd5b806006600084815260200190815260200160002090805190602001906117b1929190611d55565b505050565b505050565b505050565b6117c981611a68565b60006006600083815260200190815260200160002080546117e990612ace565b9050146118105760066000828152602001908152602001600020600061180f9190611ddb565b5b50565b60006118348473ffffffffffffffffffffffffffffffffffffffff16611b85565b1561199d578373ffffffffffffffffffffffffffffffffffffffff1663150b7a0261185d610d67565b8786866040518563ffffffff1660e01b815260040161187f949392919061258f565b602060405180830381600087803b15801561189957600080fd5b505af19250505080156118ca57506040513d601f19601f820116820180604052508101906118c79190612195565b60015b61194d573d80600081146118fa576040519150601f19603f3d011682016040523d82523d6000602084013e6118ff565b606091505b50600081511415611945576040517f08c379a000000000000000000000000000000000000000000000000000000000815260040161193c90612618565b60405180910390fd5b805181602001fd5b63150b7a0260e01b7bffffffffffffffffffffffffffffffffffffffffffffffffffffffff1916817bffffffffffffffffffffffffffffffffffffffffffffffffffffffff1916149150506119a2565b600190505b949350505050565b606060405180602001604052806000815250905090565b60606119cc82610cfb565b611a0b576040517f08c379a0000000000000000000000000000000000000000000000000000000008152600401611a02906127f8565b60405180910390fd5b6000611a156119aa565b90506000815111611a355760405180602001604052806000815250611a60565b80611a3f84611ba8565b604051602001611a50929190612550565b6040516020818303038152906040525b915050919050565b6000611a7382610780565b9050611a81816000846117b6565b611a8c600083610d6f565b6001600360008373ffffffffffffffffffffffffffffffffffffffff1673ffffffffffffffffffffffffffffffffffffffff1681526020019081526020016000206000828254611adc91906129e4565b925050819055506002600083815260200190815260200160002060006101000a81549073ffffffffffffffffffffffffffffffffffffffff021916905581600073ffffffffffffffffffffffffffffffffffffffff168273ffffffffffffffffffffffffffffffffffffffff167fddf252ad1be2c89b69c2b068fc378daa952ba7f163c4a11628f55a4df523b3ef60405160405180910390a4611b81816000846117bb565b5050565b6000808273ffffffffffffffffffffffffffffffffffffffff163b119050919050565b60606000821415611bf0576040518060400160405280600181526020017f30000000000000000000000000000000000000000000000000000000000000008152509050611d50565b600082905060005b60008214611c22578080611c0b90612b31565b915050600a82611c1b91906129b3565b9150611bf8565b60008167ffffffffffffffff811115611c64577f4e487b7100000000000000000000000000000000000000000000000000000000600052604160045260246000fd5b6040519080825280601f01601f191660200182016040528015611c965781602001600182028036833780820191505090505b5090505b60008514611d4957600182611caf91906129e4565b9150600a85611cbe9190612b7a565b6030611cca919061295d565b60f81b818381518110611d06577f4e487b7100000000000000000000000000000000000000000000000000000000600052603260045260246000fd5b60200101907effffffffffffffffffffffffffffffffffffffffffffffffffffffffffffff1916908160001a905350600a85611d4291906129b3565b9450611c9a565b8093505050505b919050565b828054611d6190612ace565b90600052602060002090601f016020900481019282611d835760008555611dca565b82601f10611d9c57805160ff1916838001178555611dca565b82800160010185558215611dca579182015b82811115611dc9578251825591602001919060010190611dae565b5b509050611dd79190611e1b565b5090565b508054611de790612ace565b6000825580601f10611df95750611e18565b601f016020900490600052602060002090810190611e179190611e1b565b5b50565b5b80821115611e34576000816000905550600101611e1c565b5090565b6000611e4b611e46846128b8565b612893565b905082815260208101848484011115611e6357600080fd5b611e6e848285612a8c565b509392505050565b6000611e89611e84846128e9565b612893565b905082815260208101848484011115611ea157600080fd5b611eac848285612a8c565b509392505050565b600081359050611ec3816131bd565b92915050565b600081359050611ed8816131d4565b92915050565b600081359050611eed816131eb565b92915050565b600081519050611f02816131eb565b92915050565b600082601f830112611f1957600080fd5b8135611f29848260208601611e38565b91505092915050565b600082601f830112611f4357600080fd5b8135611f53848260208601611e76565b91505092915050565b600081359050611f6b81613202565b92915050565b600060208284031215611f8357600080fd5b6000611f9184828501611eb4565b91505092915050565b60008060408385031215611fad57600080fd5b6000611fbb85828601611eb4565b9250506020611fcc85828601611eb4565b9150509250929050565b600080600060608486031215611feb57600080fd5b6000611ff986828701611eb4565b935050602061200a86828701611eb4565b925050604061201b86828701611f5c565b9150509250925092565b6000806000806080858703121561203b57600080fd5b600061204987828801611eb4565b945050602061205a87828801611eb4565b935050604061206b87828801611f5c565b925050606085013567ffffffffffffffff81111561208857600080fd5b61209487828801611f08565b91505092959194509250565b600080604083850312156120b357600080fd5b60006120c185828601611eb4565b92505060206120d285828601611ec9565b9150509250929050565b600080604083850312156120ef57600080fd5b60006120fd85828601611eb4565b925050602083013567ffffffffffffffff81111561211a57600080fd5b61212685828601611f32565b9150509250929050565b6000806040838503121561214357600080fd5b600061215185828601611eb4565b925050602061216285828601611f5c565b9150509250929050565b60006020828403121561217e57600080fd5b600061218c84828501611ede565b91505092915050565b6000602082840312156121a757600080fd5b60006121b584828501611ef3565b91505092915050565b6000602082840312156121d057600080fd5b60006121de84828501611f5c565b91505092915050565b6121f081612a18565b82525050565b6121ff81612a2a565b82525050565b60006122108261291a565b61221a8185612930565b935061222a818560208601612a9b565b61223381612c67565b840191505092915050565b600061224982612925565b6122538185612941565b9350612263818560208601612a9b565b61226c81612c67565b840191505092915050565b600061228282612925565b61228c8185612952565b935061229c818560208601612a9b565b80840191505092915050565b60006122b5603283612941565b91506122c082612c78565b604082019050919050565b60006122d8602683612941565b91506122e382612cc7565b604082019050919050565b60006122fb602583612941565b915061230682612d16565b604082019050919050565b600061231e601c83612941565b915061232982612d65565b602082019050919050565b6000612341602483612941565b915061234c82612d8e565b604082019050919050565b6000612364601983612941565b915061236f82612ddd565b602082019050919050565b6000612387602c83612941565b915061239282612e06565b604082019050919050565b60006123aa603883612941565b91506123b582612e55565b604082019050919050565b60006123cd602a83612941565b91506123d882612ea4565b604082019050919050565b60006123f0602983612941565b91506123fb82612ef3565b604082019050919050565b6000612413602e83612941565b915061241e82612f42565b604082019050919050565b6000612436602083612941565b915061244182612f91565b602082019050919050565b6000612459603183612941565b915061246482612fba565b604082019050919050565b600061247c602c83612941565b915061248782613009565b604082019050919050565b600061249f602083612941565b91506124aa82613058565b602082019050919050565b60006124c2602f83612941565b91506124cd82613081565b604082019050919050565b60006124e5602183612941565b91506124f0826130d0565b604082019050919050565b6000612508603183612941565b91506125138261311f565b604082019050919050565b600061252b603083612941565b91506125368261316e565b604082019050919050565b61254a81612a82565b82525050565b600061255c8285612277565b91506125688284612277565b91508190509392505050565b600060208201905061258960008301846121e7565b92915050565b60006080820190506125a460008301876121e7565b6125b160208301866121e7565b6125be6040830185612541565b81810360608301526125d08184612205565b905095945050505050565b60006020820190506125f060008301846121f6565b92915050565b60006020820190508181036000830152612610818461223e565b905092915050565b60006020820190508181036000830152612631816122a8565b9050919050565b60006020820190508181036000830152612651816122cb565b9050919050565b60006020820190508181036000830152612671816122ee565b9050919050565b6000602082019050818103600083015261269181612311565b9050919050565b600060208201905081810360008301526126b181612334565b9050919050565b600060208201905081810360008301526126d181612357565b9050919050565b600060208201905081810360008301526126f18161237a565b9050919050565b600060208201905081810360008301526127118161239d565b9050919050565b60006020820190508181036000830152612731816123c0565b9050919050565b60006020820190508181036000830152612751816123e3565b9050919050565b6000602082019050818103600083015261277181612406565b9050919050565b6000602082019050818103600083015261279181612429565b9050919050565b600060208201905081810360008301526127b18161244c565b9050919050565b600060208201905081810360008301526127d18161246f565b9050919050565b600060208201905081810360008301526127f181612492565b9050919050565b60006020820190508181036000830152612811816124b5565b9050919050565b60006020820190508181036000830152612831816124d8565b9050919050565b60006020820190508181036000830152612851816124fb565b9050919050565b600060208201905081810360008301526128718161251e565b9050919050565b600060208201905061288d6000830184612541565b92915050565b600061289d6128ae565b90506128a98282612b00565b919050565b6000604051905090565b600067ffffffffffffffff8211156128d3576128d2612c38565b5b6128dc82612c67565b9050602081019050919050565b600067ffffffffffffffff82111561290457612903612c38565b5b61290d82612c67565b9050602081019050919050565b600081519050919050565b600081519050919050565b600082825260208201905092915050565b600082825260208201905092915050565b600081905092915050565b600061296882612a82565b915061297383612a82565b9250827fffffffffffffffffffffffffffffffffffffffffffffffffffffffffffffffff038211156129a8576129a7612bab565b5b828201905092915050565b60006129be82612a82565b91506129c983612a82565b9250826129d9576129d8612bda565b5b828204905092915050565b60006129ef82612a82565b91506129fa83612a82565b925082821015612a0d57612a0c612bab565b5b828203905092915050565b6000612a2382612a62565b9050919050565b60008115159050919050565b60007fffffffff0000000000000000000000000000000000000000000000000000000082169050919050565b600073ffffffffffffffffffffffffffffffffffffffff82169050919050565b6000819050919050565b82818337600083830152505050565b60005b83811015612ab9578082015181840152602081019050612a9e565b83811115612ac8576000848401525b50505050565b60006002820490506001821680612ae657607f821691505b60208210811415612afa57612af9612c09565b5b50919050565b612b0982612c67565b810181811067ffffffffffffffff82111715612b2857612b27612c38565b5b80604052505050565b6000612b3c82612a82565b91507fffffffffffffffffffffffffffffffffffffffffffffffffffffffffffffffff821415612b6f57612b6e612bab565b5b600182019050919050565b6000612b8582612a82565b9150612b9083612a82565b925082612ba057612b9f612bda565b5b828206905092915050565b7f4e487b7100000000000000000000000000000000000000000000000000000000600052601160045260246000fd5b7f4e487b7100000000000000000000000000000000000000000000000000000000600052601260045260246000fd5b7f4e487b7100000000000000000000000000000000000000000000000000000000600052602260045260246000fd5b7f4e487b7100000000000000000000000000000000000000000000000000000000600052604160045260246000fd5b6000601f19601f8301169050919050565b7f4552433732313a207472616e7366657220746f206e6f6e20455243373231526560008201527f63656976657220696d706c656d656e7465720000000000000000000000000000602082015250565b7f4f776e61626c653a206e6577206f776e657220697320746865207a65726f206160008201527f6464726573730000000000000000000000000000000000000000000000000000602082015250565b7f4552433732313a207472616e736665722066726f6d20696e636f72726563742060008201527f6f776e6572000000000000000000000000000000000000000000000000000000602082015250565b7f4552433732313a20746f6b656e20616c7265616479206d696e74656400000000600082015250565b7f4552433732313a207472616e7366657220746f20746865207a65726f2061646460008201527f7265737300000000000000000000000000000000000000000000000000000000602082015250565b7f4552433732313a20617070726f766520746f2063616c6c657200000000000000600082015250565b7f4552433732313a206f70657261746f7220717565727920666f72206e6f6e657860008201527f697374656e7420746f6b656e0000000000000000000000000000000000000000602082015250565b7f4552433732313a20617070726f76652063616c6c6572206973206e6f74206f7760008201527f6e6572206e6f7220617070726f76656420666f7220616c6c0000000000000000602082015250565b7f4552433732313a2062616c616e636520717565727920666f7220746865207a6560008201527f726f206164647265737300000000000000000000000000000000000000000000602082015250565b7f4552433732313a206f776e657220717565727920666f72206e6f6e657869737460008201527f656e7420746f6b656e0000000000000000000000000000000000000000000000602082015250565b7f45524337323155524953746f726167653a2055524920736574206f66206e6f6e60008201527f6578697374656e7420746f6b656e000000000000000000000000000000000000602082015250565b7f4552433732313a206d696e7420746f20746865207a65726f2061646472657373600082015250565b7f45524337323155524953746f726167653a2055524920717565727920666f722060008201527f6e6f6e6578697374656e7420746f6b656e000000000000000000000000000000602082015250565b7f4552433732313a20617070726f76656420717565727920666f72206e6f6e657860008201527f697374656e7420746f6b656e0000000000000000000000000000000000000000602082015250565b7f4f776e61626c653a2063616c6c6572206973206e6f7420746865206f776e6572600082015250565b7f4552433732314d657461646174613a2055524920717565727920666f72206e6f60008201527f6e6578697374656e7420746f6b656e0000000000000000000000000000000000602082015250565b7f4552433732313a20617070726f76616c20746f2063757272656e74206f776e6560008201527f7200000000000000000000000000000000000000000000000000000000000000602082015250565b7f4552433732313a207472616e736665722063616c6c6572206973206e6f74206f60008201527f776e6572206e6f7220617070726f766564000000000000000000000000000000602082015250565b7f4552433732314275726e61626c653a2063616c6c6572206973206e6f74206f7760008201527f6e6572206e6f7220617070726f76656400000000000000000000000000000000602082015250565b6131c681612a18565b81146131d157600080fd5b50565b6131dd81612a2a565b81146131e857600080fd5b50565b6131f481612a36565b81146131ff57600080fd5b50565b61320b81612a82565b811461321657600080fd5b5056fea2646970667358221220c87e8e43faea037b15c17a11cde3fa8499a49d39b6b641ea427dce148fbc805b64736f6c63430008040033",
  "linkReferences": {},
  "deployedLinkReferences": {}
}