{
  "_format": "hh-sol-artifact-1",
  "contractName": "WeddingManager",
  "sourceName": "contracts/WeddingManager.sol",
  "abi": [
    {
      "inputs": [
        {
          "internalType": "address",
          "name": "_weddingRingContract",
          "type": "address"
        }
      ],
      "stateMutability": "nonpayable",
      "type": "constructor"
    },
    {
      "anonymous": false,
      "inputs": [
        {
          "indexed": true,
          "internalType": "address",
          "name": "previousOwner",
          "type": "address"
        },
        {
          "indexed": true,
          "internalType": "address",
          "name": "newOwner",
          "type": "address"
        }
      ],
      "name": "OwnershipTransferred",
      "type": "event"
    },
    {
      "anonymous": false,
      "inputs": [
        {
          "indexed": false,
          "internalType": "address",
          "name": "createdFor",
          "type": "address"
        },
        {
          "indexed": false,
          "internalType": "uint256",
          "name": "ringId",
          "type": "uint256"
        },
        {
          "indexed": false,
          "internalType": "string",
          "name": "uri",
          "type": "string"
        }
      ],
      "name": "RingCreated",
      "type": "event"
    },
    {
      "anonymous": false,
      "inputs": [
        {
          "indexed": false,
          "internalType": "address",
          "name": "sentBy",
          "type": "address"
        },
        {
          "indexed": false,
          "internalType": "address",
          "name": "sentTo",
          "type": "address"
        },
        {
          "indexed": false,
          "internalType": "uint256",
          "name": "ringId",
          "type": "uint256"
        }
      ],
      "name": "RingSent",
      "type": "event"
    },
    {
      "anonymous": false,
      "inputs": [
        {
          "indexed": false,
          "internalType": "uint256",
          "name": "weddingId",
          "type": "uint256"
        }
      ],
      "name": "WeddingComplete",
      "type": "event"
    },
    {
      "anonymous": false,
      "inputs": [
        {
          "indexed": false,
          "internalType": "uint256",
          "name": "tokenId",
          "type": "uint256"
        }
      ],
      "name": "WeddingCreated",
      "type": "event"
    },
    {
      "inputs": [
        {
          "internalType": "address",
          "name": "",
          "type": "address"
        }
      ],
      "name": "addressToWedding",
      "outputs": [
        {
          "internalType": "uint256",
          "name": "",
          "type": "uint256"
        }
      ],
      "stateMutability": "view",
      "type": "function"
    },
    {
      "inputs": [
        {
          "internalType": "uint256",
          "name": "_weddingId",
          "type": "uint256"
        }
      ],
      "name": "annulMarriage",
      "outputs": [],
      "stateMutability": "nonpayable",
      "type": "function"
    },
    {
      "inputs": [
        {
          "internalType": "address",
          "name": "_address",
          "type": "address"
        }
      ],
      "name": "checkIfPersonIsMarried",
      "outputs": [
        {
          "internalType": "bool",
          "name": "",
          "type": "bool"
        }
      ],
      "stateMutability": "view",
      "type": "function"
    },
    {
      "inputs": [
        {
          "internalType": "string",
          "name": "_uri",
          "type": "string"
        }
      ],
      "name": "createRing",
      "outputs": [],
      "stateMutability": "nonpayable",
      "type": "function"
    },
    {
      "inputs": [
        {
          "internalType": "address",
          "name": "_partner1Wallet",
          "type": "address"
        },
        {
          "internalType": "address",
          "name": "_partner2Wallet",
          "type": "address"
        },
        {
          "internalType": "string",
          "name": "_partner1Name",
          "type": "string"
        },
        {
          "internalType": "string",
          "name": "_partner2Name",
          "type": "string"
        }
      ],
      "name": "createWedding",
      "outputs": [],
      "stateMutability": "nonpayable",
      "type": "function"
    },
    {
      "inputs": [
        {
          "internalType": "uint256",
          "name": "_weddingId",
          "type": "uint256"
        }
      ],
      "name": "getWeddingBalance",
      "outputs": [
        {
          "internalType": "uint256",
          "name": "",
          "type": "uint256"
        }
      ],
      "stateMutability": "view",
      "type": "function"
    },
    {
      "inputs": [
        {
          "internalType": "uint256",
          "name": "_weddingId",
          "type": "uint256"
        }
      ],
      "name": "getWeddingById",
      "outputs": [
        {
          "components": [
            {
              "components": [
                {
                  "internalType": "address",
                  "name": "wallet",
                  "type": "address"
                },
                {
                  "internalType": "string",
                  "name": "name",
                  "type": "string"
                },
                {
                  "internalType": "uint256",
                  "name": "ringId",
                  "type": "uint256"
                },
                {
                  "internalType": "string",
                  "name": "tokeUri",
                  "type": "string"
                },
                {
                  "internalType": "bool",
                  "name": "sentRing",
                  "type": "bool"
                }
              ],
              "internalType": "struct WeddingManager.Partner",
              "name": "partner1",
              "type": "tuple"
            },
            {
              "components": [
                {
                  "internalType": "address",
                  "name": "wallet",
                  "type": "address"
                },
                {
                  "internalType": "string",
                  "name": "name",
                  "type": "string"
                },
                {
                  "internalType": "uint256",
                  "name": "ringId",
                  "type": "uint256"
                },
                {
                  "internalType": "string",
                  "name": "tokeUri",
                  "type": "string"
                },
                {
                  "internalType": "bool",
                  "name": "sentRing",
                  "type": "bool"
                }
              ],
              "internalType": "struct WeddingManager.Partner",
              "name": "partner2",
              "type": "tuple"
            },
            {
              "internalType": "address",
              "name": "thirdParty",
              "type": "address"
            },
            {
              "internalType": "uint256",
              "name": "balance",
              "type": "uint256"
            },
            {
              "internalType": "uint256",
              "name": "status",
              "type": "uint256"
            }
          ],
          "internalType": "struct WeddingManager.Wedding",
          "name": "",
          "type": "tuple"
        }
      ],
      "stateMutability": "view",
      "type": "function"
    },
    {
      "inputs": [],
      "name": "getWeddingIdByAccount",
      "outputs": [
        {
          "internalType": "uint256",
          "name": "",
          "type": "uint256"
        }
      ],
      "stateMutability": "view",
      "type": "function"
    },
    {
      "inputs": [
        {
          "internalType": "uint256",
          "name": "_weddingId",
          "type": "uint256"
        }
      ],
      "name": "getWeddingStatus",
      "outputs": [
        {
          "internalType": "uint256",
          "name": "",
          "type": "uint256"
        }
      ],
      "stateMutability": "view",
      "type": "function"
    },
    {
      "inputs": [],
      "name": "owner",
      "outputs": [
        {
          "internalType": "address",
          "name": "",
          "type": "address"
        }
      ],
      "stateMutability": "view",
      "type": "function"
    },
    {
      "inputs": [],
      "name": "renounceOwnership",
      "outputs": [],
      "stateMutability": "nonpayable",
      "type": "function"
    },
    {
      "inputs": [
        {
          "internalType": "uint256",
          "name": "_weddingId",
          "type": "uint256"
        }
      ],
      "name": "sendEther",
      "outputs": [],
      "stateMutability": "payable",
      "type": "function"
    },
    {
      "inputs": [
        {
          "internalType": "uint256",
          "name": "_weddingId",
          "type": "uint256"
        }
      ],
      "name": "sendRing",
      "outputs": [],
      "stateMutability": "nonpayable",
      "type": "function"
    },
    {
      "inputs": [
        {
          "internalType": "address",
          "name": "_address",
          "type": "address"
        }
      ],
      "name": "setRingContractAddress",
      "outputs": [],
      "stateMutability": "nonpayable",
      "type": "function"
    },
    {
      "inputs": [
        {
          "internalType": "address",
          "name": "newOwner",
          "type": "address"
        }
      ],
      "name": "transferOwnership",
      "outputs": [],
      "stateMutability": "nonpayable",
      "type": "function"
    },
    {
      "inputs": [
        {
          "internalType": "uint256",
          "name": "_weddingId",
          "type": "uint256"
        },
        {
          "internalType": "string",
          "name": "_partner1Name",
          "type": "string"
        },
        {
          "internalType": "string",
          "name": "_partner2Name",
          "type": "string"
        }
      ],
      "name": "updateWedding",
      "outputs": [],
      "stateMutability": "nonpayable",
      "type": "function"
    },
    {
      "inputs": [
        {
          "internalType": "uint256",
          "name": "",
          "type": "uint256"
        }
      ],
      "name": "weddings",
      "outputs": [
        {
          "components": [
            {
              "internalType": "address",
              "name": "wallet",
              "type": "address"
            },
            {
              "internalType": "string",
              "name": "name",
              "type": "string"
            },
            {
              "internalType": "uint256",
              "name": "ringId",
              "type": "uint256"
            },
            {
              "internalType": "string",
              "name": "tokeUri",
              "type": "string"
            },
            {
              "internalType": "bool",
              "name": "sentRing",
              "type": "bool"
            }
          ],
          "internalType": "struct WeddingManager.Partner",
          "name": "partner1",
          "type": "tuple"
        },
        {
          "components": [
            {
              "internalType": "address",
              "name": "wallet",
              "type": "address"
            },
            {
              "internalType": "string",
              "name": "name",
              "type": "string"
            },
            {
              "internalType": "uint256",
              "name": "ringId",
              "type": "uint256"
            },
            {
              "internalType": "string",
              "name": "tokeUri",
              "type": "string"
            },
            {
              "internalType": "bool",
              "name": "sentRing",
              "type": "bool"
            }
          ],
          "internalType": "struct WeddingManager.Partner",
          "name": "partner2",
          "type": "tuple"
        },
        {
          "internalType": "address",
          "name": "thirdParty",
          "type": "address"
        },
        {
          "internalType": "uint256",
          "name": "balance",
          "type": "uint256"
        },
        {
          "internalType": "uint256",
          "name": "status",
          "type": "uint256"
        }
      ],
      "stateMutability": "view",
      "type": "function"
    },
    {
      "inputs": [
        {
          "internalType": "uint256",
          "name": "_weddingId",
          "type": "uint256"
        },
        {
          "internalType": "uint256",
          "name": "_amount",
          "type": "uint256"
        }
      ],
      "name": "withdrawEther",
      "outputs": [],
      "stateMutability": "nonpayable",
      "type": "function"
    }
  ],
  "bytecode": "0x60806040523480156200001157600080fd5b506040516200402938038062004029833981810160405281019062000037919062000182565b620000576200004b6200009f60201b60201c565b620000a760201b60201c565b80600260006101000a81548173ffffffffffffffffffffffffffffffffffffffff021916908373ffffffffffffffffffffffffffffffffffffffff16021790555050620001fc565b600033905090565b60008060009054906101000a900473ffffffffffffffffffffffffffffffffffffffff169050816000806101000a81548173ffffffffffffffffffffffffffffffffffffffff021916908373ffffffffffffffffffffffffffffffffffffffff1602179055508173ffffffffffffffffffffffffffffffffffffffff168173ffffffffffffffffffffffffffffffffffffffff167f8be0079c531659141344cd1fd0a4f28419497f9722a3daafe3b4186f6b6457e060405160405180910390a35050565b6000815190506200017c81620001e2565b92915050565b6000602082840312156200019557600080fd5b6000620001a5848285016200016b565b91505092915050565b6000620001bb82620001c2565b9050919050565b600073ffffffffffffffffffffffffffffffffffffffff82169050919050565b620001ed81620001ae565b8114620001f957600080fd5b50565b613e1d806200020c6000396000f3fe6080604052600436106101095760003560e01c806386144c6211610095578063d72fe26011610064578063d72fe26014610355578063f210618414610392578063f2fde38b146103cf578063f6841116146103f8578063f88d331a1461043557610109565b806386144c62146102995780638da5cb5b146102d6578063a191f7e814610301578063aa046a311461032c57610109565b80634546ea1d116100dc5780634546ea1d146101b25780634fe00c96146101db57806357ec24501461021c578063715018a6146102455780637e76adc51461025c57610109565b80630a457cce1461010e57806323835898146101375780632650a47c1461016057806329ccfd0c14610189575b600080fd5b34801561011a57600080fd5b5061013560048036038101906101309190612d95565b610451565b005b34801561014357600080fd5b5061015e60048036038101906101599190612d54565b6108b4565b005b34801561016c57600080fd5b5061018760048036038101906101829190612e70565b610ca8565b005b34801561019557600080fd5b506101b060048036038101906101ab9190612d95565b610ff3565b005b3480156101be57600080fd5b506101d960048036038101906101d49190612c98565b611575565b005b3480156101e757600080fd5b5061020260048036038101906101fd9190612d95565b611635565b604051610213959493929190613632565b60405180910390f35b34801561022857600080fd5b50610243600480360381019061023e9190612de7565b6119dd565b005b34801561025157600080fd5b5061025a611b14565b005b34801561026857600080fd5b50610283600480360381019061027e9190612c98565b611b9c565b60405161029091906136b5565b60405180910390f35b3480156102a557600080fd5b506102c060048036038101906102bb9190612d95565b611bb4565b6040516102cd9190613693565b60405180910390f35b3480156102e257600080fd5b506102eb611fb1565b6040516102f89190613357565b60405180910390f35b34801561030d57600080fd5b50610316611fda565b60405161032391906136b5565b60405180910390f35b34801561033857600080fd5b50610353600480360381019061034e9190612cc1565b612021565b005b34801561036157600080fd5b5061037c60048036038101906103779190612c98565b612533565b6040516103899190613417565b60405180910390f35b34801561039e57600080fd5b506103b960048036038101906103b49190612d95565b6125a1565b6040516103c691906136b5565b60405180910390f35b3480156103db57600080fd5b506103f660048036038101906103f19190612c98565b61261d565b005b34801561040457600080fd5b5061041f600480360381019061041a9190612d95565b612715565b60405161042c91906136b5565b60405180910390f35b61044f600480360381019061044a9190612d95565b612735565b005b80338073ffffffffffffffffffffffffffffffffffffffff166003600084815260200190815260200160002060000160000160009054906101000a900473ffffffffffffffffffffffffffffffffffffffff1673ffffffffffffffffffffffffffffffffffffffff16148061052a57508073ffffffffffffffffffffffffffffffffffffffff166003600084815260200190815260200160002060050160000160009054906101000a900473ffffffffffffffffffffffffffffffffffffffff1673ffffffffffffffffffffffffffffffffffffffff16145b610569576040517f08c379a0000000000000000000000000000000000000000000000000000000008152600401610560906135f2565b60405180910390fd5b82600060036000838152602001908152602001600020600c015414156105c4576040517f08c379a00000000000000000000000000000000000000000000000000000000081526004016105bb90613532565b60405180910390fd5b6003806000868152602001908152602001600020600c01541461061c576040517f08c379a000000000000000000000000000000000000000000000000000000000815260040161061390613512565b60405180910390fd5b600460006003600087815260200190815260200160002060000160000160009054906101000a900473ffffffffffffffffffffffffffffffffffffffff1673ffffffffffffffffffffffffffffffffffffffff1673ffffffffffffffffffffffffffffffffffffffff16815260200190815260200160002060009055600460006003600087815260200190815260200160002060050160000160009054906101000a900473ffffffffffffffffffffffffffffffffffffffff1673ffffffffffffffffffffffffffffffffffffffff1673ffffffffffffffffffffffffffffffffffffffff168152602001908152602001600020600090556004600060036000878152602001908152602001600020600a0160009054906101000a900473ffffffffffffffffffffffffffffffffffffffff1673ffffffffffffffffffffffffffffffffffffffff1673ffffffffffffffffffffffffffffffffffffffff16815260200190815260200160002060009055600360008581526020019081526020016000206000808201600080820160006101000a81549073ffffffffffffffffffffffffffffffffffffffff02191690556001820160006107dd91906129a6565b60028201600090556003820160006107f591906129a6565b6004820160006101000a81549060ff0219169055505060058201600080820160006101000a81549073ffffffffffffffffffffffffffffffffffffffff021916905560018201600061084791906129a6565b600282016000905560038201600061085f91906129a6565b6004820160006101000a81549060ff02191690555050600a820160006101000a81549073ffffffffffffffffffffffffffffffffffffffff0219169055600b820160009055600c820160009055505050505050565b336000600460008373ffffffffffffffffffffffffffffffffffffffff1673ffffffffffffffffffffffffffffffffffffffff168152602001908152602001600020541415610938576040517f08c379a000000000000000000000000000000000000000000000000000000000815260040161092f90613432565b60405180910390fd5b6000600460003373ffffffffffffffffffffffffffffffffffffffff1673ffffffffffffffffffffffffffffffffffffffff168152602001908152602001600020549050600160036000838152602001908152602001600020600c0154146109d5576040517f08c379a00000000000000000000000000000000000000000000000000000000081526004016109cc906134f2565b60405180910390fd5b6000600260009054906101000a900473ffffffffffffffffffffffffffffffffffffffff1673ffffffffffffffffffffffffffffffffffffffff1663d0def52130866040518363ffffffff1660e01b8152600401610a349291906133a9565b602060405180830381600087803b158015610a4e57600080fd5b505af1158015610a62573d6000803e3d6000fd5b505050506040513d601f19601f82011682018060405250810190610a869190612dbe565b90503373ffffffffffffffffffffffffffffffffffffffff166003600084815260200190815260200160002060000160000160009054906101000a900473ffffffffffffffffffffffffffffffffffffffff1673ffffffffffffffffffffffffffffffffffffffff161415610b465780600360008481526020019081526020016000206000016002018190555083600360008481526020019081526020016000206000016003019080519060200190610b409291906129e6565b50610c01565b3373ffffffffffffffffffffffffffffffffffffffff166003600084815260200190815260200160002060050160000160009054906101000a900473ffffffffffffffffffffffffffffffffffffffff1673ffffffffffffffffffffffffffffffffffffffff161415610c005780600360008481526020019081526020016000206005016002018190555083600360008481526020019081526020016000206005016003019080519060200190610bfe9291906129e6565b505b5b7fc92d62fc7e1a5208f245f0573cded042050e92f3a055c05651fdb11b42b72db0338286604051610c34939291906133d9565b60405180910390a16000600360008481526020019081526020016000206000016002015414158015610c8057506000600360008481526020019081526020016000206005016002015414155b15610ca257600260036000848152602001908152602001600020600c01819055505b50505050565b81338073ffffffffffffffffffffffffffffffffffffffff166003600084815260200190815260200160002060000160000160009054906101000a900473ffffffffffffffffffffffffffffffffffffffff1673ffffffffffffffffffffffffffffffffffffffff161480610d8157508073ffffffffffffffffffffffffffffffffffffffff166003600084815260200190815260200160002060050160000160009054906101000a900473ffffffffffffffffffffffffffffffffffffffff1673ffffffffffffffffffffffffffffffffffffffff16145b610dc0576040517f08c379a0000000000000000000000000000000000000000000000000000000008152600401610db7906135f2565b60405180910390fd5b8260036000868152602001908152602001600020600b01541015610e19576040517f08c379a0000000000000000000000000000000000000000000000000000000008152600401610e1090613452565b60405180910390fd5b8260036000868152602001908152602001600020600b016000828254610e3f91906137e5565b925050819055506000600284610e5591906137b4565b905060006003600087815260200190815260200160002060000160000160009054906101000a900473ffffffffffffffffffffffffffffffffffffffff1673ffffffffffffffffffffffffffffffffffffffff1682604051610eb690613342565b60006040518083038185875af1925050503d8060008114610ef3576040519150601f19603f3d011682016040523d82523d6000602084013e610ef8565b606091505b5050905060006003600088815260200190815260200160002060050160000160009054906101000a900473ffffffffffffffffffffffffffffffffffffffff1673ffffffffffffffffffffffffffffffffffffffff1683604051610f5b90613342565b60006040518083038185875af1925050503d8060008114610f98576040519150601f19603f3d011682016040523d82523d6000602084013e610f9d565b606091505b50509050818015610fab5750805b610fea576040517f08c379a0000000000000000000000000000000000000000000000000000000008152600401610fe190613612565b60405180910390fd5b50505050505050565b80338073ffffffffffffffffffffffffffffffffffffffff166003600084815260200190815260200160002060000160000160009054906101000a900473ffffffffffffffffffffffffffffffffffffffff1673ffffffffffffffffffffffffffffffffffffffff1614806110cc57508073ffffffffffffffffffffffffffffffffffffffff166003600084815260200190815260200160002060050160000160009054906101000a900473ffffffffffffffffffffffffffffffffffffffff1673ffffffffffffffffffffffffffffffffffffffff16145b61110b576040517f08c379a0000000000000000000000000000000000000000000000000000000008152600401611102906135f2565b60405180910390fd5b600260036000858152602001908152602001600020600c015414611164576040517f08c379a000000000000000000000000000000000000000000000000000000000815260040161115b90613492565b60405180910390fd5b6000803373ffffffffffffffffffffffffffffffffffffffff166003600087815260200190815260200160002060000160000160009054906101000a900473ffffffffffffffffffffffffffffffffffffffff1673ffffffffffffffffffffffffffffffffffffffff1614156112095760036000868152602001908152602001600020600001915060036000868152602001908152602001600020600501905061123a565b6003600086815260200190815260200160002060050191506003600086815260200190815260200160002060000190505b3373ffffffffffffffffffffffffffffffffffffffff168160000160009054906101000a900473ffffffffffffffffffffffffffffffffffffffff1673ffffffffffffffffffffffffffffffffffffffff1614156112cd576040517f08c379a00000000000000000000000000000000000000000000000000000000081526004016112c490613552565b60405180910390fd5b600082600201541415611315576040517f08c379a000000000000000000000000000000000000000000000000000000000815260040161130c90613472565b60405180910390fd5b600015158260040160009054906101000a900460ff1615151461136d576040517f08c379a000000000000000000000000000000000000000000000000000000000815260040161136490613592565b60405180910390fd5b600260009054906101000a900473ffffffffffffffffffffffffffffffffffffffff1673ffffffffffffffffffffffffffffffffffffffff166323b872dd308360000160009054906101000a900473ffffffffffffffffffffffffffffffffffffffff1685600201546040518463ffffffff1660e01b81526004016113f493929190613372565b600060405180830381600087803b15801561140e57600080fd5b505af1158015611422573d6000803e3d6000fd5b505050507f581c81e74369e1cfbc23fe2fa71d2dc66c1c9d68eb368b6053236d4ba8d475fb8260000160009054906101000a900473ffffffffffffffffffffffffffffffffffffffff168260000160009054906101000a900473ffffffffffffffffffffffffffffffffffffffff1684600201546040516114a593929190613372565b60405180910390a160018260040160006101000a81548160ff0219169083151502179055508160040160009054906101000a900460ff1680156114f657508060040160009054906101000a900460ff165b1561156e576003806000878152602001908152602001600020600c0181905550600082600201549050816002015483600201819055508082600201819055507f26fcd55b0f21e9beaf8b4b4077016a0666b70e6d2711098de0a4ded18204175c8660405161156491906136b5565b60405180910390a1505b5050505050565b61157d6128da565b73ffffffffffffffffffffffffffffffffffffffff1661159b611fb1565b73ffffffffffffffffffffffffffffffffffffffff16146115f1576040517f08c379a00000000000000000000000000000000000000000000000000000000081526004016115e8906135b2565b60405180910390fd5b80600260006101000a81548173ffffffffffffffffffffffffffffffffffffffff021916908373ffffffffffffffffffffffffffffffffffffffff16021790555050565b6003602052806000526040600020600091509050806000016040518060a00160405290816000820160009054906101000a900473ffffffffffffffffffffffffffffffffffffffff1673ffffffffffffffffffffffffffffffffffffffff1673ffffffffffffffffffffffffffffffffffffffff1681526020016001820180546116be906138a3565b80601f01602080910402602001604051908101604052809291908181526020018280546116ea906138a3565b80156117375780601f1061170c57610100808354040283529160200191611737565b820191906000526020600020905b81548152906001019060200180831161171a57829003601f168201915b505050505081526020016002820154815260200160038201805461175a906138a3565b80601f0160208091040260200160405190810160405280929190818152602001828054611786906138a3565b80156117d35780601f106117a8576101008083540402835291602001916117d3565b820191906000526020600020905b8154815290600101906020018083116117b657829003601f168201915b505050505081526020016004820160009054906101000a900460ff16151515158152505090806005016040518060a00160405290816000820160009054906101000a900473ffffffffffffffffffffffffffffffffffffffff1673ffffffffffffffffffffffffffffffffffffffff1673ffffffffffffffffffffffffffffffffffffffff16815260200160018201805461186d906138a3565b80601f0160208091040260200160405190810160405280929190818152602001828054611899906138a3565b80156118e65780601f106118bb576101008083540402835291602001916118e6565b820191906000526020600020905b8154815290600101906020018083116118c957829003601f168201915b5050505050815260200160028201548152602001600382018054611909906138a3565b80601f0160208091040260200160405190810160405280929190818152602001828054611935906138a3565b80156119825780601f1061195757610100808354040283529160200191611982565b820191906000526020600020905b81548152906001019060200180831161196557829003601f168201915b505050505081526020016004820160009054906101000a900460ff1615151515815250509080600a0160009054906101000a900473ffffffffffffffffffffffffffffffffffffffff169080600b01549080600c0154905085565b336000600460008373ffffffffffffffffffffffffffffffffffffffff1673ffffffffffffffffffffffffffffffffffffffff168152602001908152602001600020541415611a61576040517f08c379a0000000000000000000000000000000000000000000000000000000008152600401611a5890613432565b60405180910390fd5b600160036000888152602001908152602001600020600c015414611aba576040517f08c379a0000000000000000000000000000000000000000000000000000000008152600401611ab1906135d2565b60405180910390fd5b8484600360008981526020019081526020016000206000016001019190611ae2929190612a6c565b508282600360008981526020019081526020016000206005016001019190611b0b929190612a6c565b50505050505050565b611b1c6128da565b73ffffffffffffffffffffffffffffffffffffffff16611b3a611fb1565b73ffffffffffffffffffffffffffffffffffffffff1614611b90576040517f08c379a0000000000000000000000000000000000000000000000000000000008152600401611b87906135b2565b60405180910390fd5b611b9a60006128e2565b565b60046020528060005260406000206000915090505481565b611bbc612af2565b600360008381526020019081526020016000206040518060a0016040529081600082016040518060a00160405290816000820160009054906101000a900473ffffffffffffffffffffffffffffffffffffffff1673ffffffffffffffffffffffffffffffffffffffff1673ffffffffffffffffffffffffffffffffffffffff168152602001600182018054611c50906138a3565b80601f0160208091040260200160405190810160405280929190818152602001828054611c7c906138a3565b8015611cc95780601f10611c9e57610100808354040283529160200191611cc9565b820191906000526020600020905b815481529060010190602001808311611cac57829003601f168201915b5050505050815260200160028201548152602001600382018054611cec906138a3565b80601f0160208091040260200160405190810160405280929190818152602001828054611d18906138a3565b8015611d655780601f10611d3a57610100808354040283529160200191611d65565b820191906000526020600020905b815481529060010190602001808311611d4857829003601f168201915b505050505081526020016004820160009054906101000a900460ff1615151515815250508152602001600582016040518060a00160405290816000820160009054906101000a900473ffffffffffffffffffffffffffffffffffffffff1673ffffffffffffffffffffffffffffffffffffffff1673ffffffffffffffffffffffffffffffffffffffff168152602001600182018054611e03906138a3565b80601f0160208091040260200160405190810160405280929190818152602001828054611e2f906138a3565b8015611e7c5780601f10611e5157610100808354040283529160200191611e7c565b820191906000526020600020905b815481529060010190602001808311611e5f57829003601f168201915b5050505050815260200160028201548152602001600382018054611e9f906138a3565b80601f0160208091040260200160405190810160405280929190818152602001828054611ecb906138a3565b8015611f185780601f10611eed57610100808354040283529160200191611f18565b820191906000526020600020905b815481529060010190602001808311611efb57829003601f168201915b505050505081526020016004820160009054906101000a900460ff1615151515815250508152602001600a820160009054906101000a900473ffffffffffffffffffffffffffffffffffffffff1673ffffffffffffffffffffffffffffffffffffffff1673ffffffffffffffffffffffffffffffffffffffff168152602001600b8201548152602001600c820154815250509050919050565b60008060009054906101000a900473ffffffffffffffffffffffffffffffffffffffff16905090565b6000600460003373ffffffffffffffffffffffffffffffffffffffff1673ffffffffffffffffffffffffffffffffffffffff16815260200190815260200160002054905090565b600060036000600460008873ffffffffffffffffffffffffffffffffffffffff1673ffffffffffffffffffffffffffffffffffffffff168152602001908152602001600020548152602001908152602001600020600c01541480156120db5750600060036000600460008773ffffffffffffffffffffffffffffffffffffffff1673ffffffffffffffffffffffffffffffffffffffff168152602001908152602001600020548152602001908152602001600020600c0154145b61211a576040517f08c379a0000000000000000000000000000000000000000000000000000000008152600401612111906134d2565b60405180910390fd5b60008473ffffffffffffffffffffffffffffffffffffffff163373ffffffffffffffffffffffffffffffffffffffff161415801561218457508373ffffffffffffffffffffffffffffffffffffffff163373ffffffffffffffffffffffffffffffffffffffff1614155b1561218d573390505b60006040518060a001604052808773ffffffffffffffffffffffffffffffffffffffff1681526020018581526020016000815260200160405180602001604052806000815250815260200160001515815250905060006040518060a001604052808773ffffffffffffffffffffffffffffffffffffffff168152602001858152602001600081526020016040518060200160405280600081525081526020016000151581525090506040518060a001604052808381526020018281526020018473ffffffffffffffffffffffffffffffffffffffff1681526020016000815260200160018152506003600060016000815461228790613906565b919050819055815260200190815260200160002060008201518160000160008201518160000160006101000a81548173ffffffffffffffffffffffffffffffffffffffff021916908373ffffffffffffffffffffffffffffffffffffffff16021790555060208201518160010190805190602001906123079291906129e6565b5060408201518160020155606082015181600301908051906020019061232e9291906129e6565b5060808201518160040160006101000a81548160ff021916908315150217905550505060208201518160050160008201518160000160006101000a81548173ffffffffffffffffffffffffffffffffffffffff021916908373ffffffffffffffffffffffffffffffffffffffff16021790555060208201518160010190805190602001906123bd9291906129e6565b506040820151816002015560608201518160030190805190602001906123e49291906129e6565b5060808201518160040160006101000a81548160ff0219169083151502179055505050604082015181600a0160006101000a81548173ffffffffffffffffffffffffffffffffffffffff021916908373ffffffffffffffffffffffffffffffffffffffff160217905550606082015181600b0155608082015181600c0155905050600154600460008973ffffffffffffffffffffffffffffffffffffffff1673ffffffffffffffffffffffffffffffffffffffff16815260200190815260200160002081905550600154600460008873ffffffffffffffffffffffffffffffffffffffff1673ffffffffffffffffffffffffffffffffffffffff168152602001908152602001600020819055507f55fb3f0e3d7d8d2c612d8d766875c79e81bb2024a8d453a20b2a1d6661d27edb60015460405161252291906136b5565b60405180910390a150505050505050565b6000806003806000600460008773ffffffffffffffffffffffffffffffffffffffff1673ffffffffffffffffffffffffffffffffffffffff168152602001908152602001600020548152602001908152602001600020600c0154141561259857600190505b80915050919050565b600081600060036000838152602001908152602001600020600c015414156125fe576040517f08c379a00000000000000000000000000000000000000000000000000000000081526004016125f590613532565b60405180910390fd5b60036000848152602001908152602001600020600b0154915050919050565b6126256128da565b73ffffffffffffffffffffffffffffffffffffffff16612643611fb1565b73ffffffffffffffffffffffffffffffffffffffff1614612699576040517f08c379a0000000000000000000000000000000000000000000000000000000008152600401612690906135b2565b60405180910390fd5b600073ffffffffffffffffffffffffffffffffffffffff168173ffffffffffffffffffffffffffffffffffffffff161415612709576040517f08c379a0000000000000000000000000000000000000000000000000000000008152600401612700906134b2565b60405180910390fd5b612712816128e2565b50565b600060036000838152602001908152602001600020600c01549050919050565b80600060036000838152602001908152602001600020600c01541415612790576040517f08c379a000000000000000000000000000000000000000000000000000000000815260040161278790613532565b60405180910390fd5b3373ffffffffffffffffffffffffffffffffffffffff166003600084815260200190815260200160002060000160000160009054906101000a900473ffffffffffffffffffffffffffffffffffffffff1673ffffffffffffffffffffffffffffffffffffffff161415801561286a57503373ffffffffffffffffffffffffffffffffffffffff166003600084815260200190815260200160002060050160000160009054906101000a900473ffffffffffffffffffffffffffffffffffffffff1673ffffffffffffffffffffffffffffffffffffffff1614155b6128a9576040517f08c379a00000000000000000000000000000000000000000000000000000000081526004016128a090613572565b60405180910390fd5b3460036000848152602001908152602001600020600b0160008282546128cf919061375e565b925050819055505050565b600033905090565b60008060009054906101000a900473ffffffffffffffffffffffffffffffffffffffff169050816000806101000a81548173ffffffffffffffffffffffffffffffffffffffff021916908373ffffffffffffffffffffffffffffffffffffffff1602179055508173ffffffffffffffffffffffffffffffffffffffff168173ffffffffffffffffffffffffffffffffffffffff167f8be0079c531659141344cd1fd0a4f28419497f9722a3daafe3b4186f6b6457e060405160405180910390a35050565b5080546129b2906138a3565b6000825580601f106129c457506129e3565b601f0160209004906000526020600020908101906129e29190612b43565b5b50565b8280546129f2906138a3565b90600052602060002090601f016020900481019282612a145760008555612a5b565b82601f10612a2d57805160ff1916838001178555612a5b565b82800160010185558215612a5b579182015b82811115612a5a578251825591602001919060010190612a3f565b5b509050612a689190612b43565b5090565b828054612a78906138a3565b90600052602060002090601f016020900481019282612a9a5760008555612ae1565b82601f10612ab357803560ff1916838001178555612ae1565b82800160010185558215612ae1579182015b82811115612ae0578235825591602001919060010190612ac5565b5b509050612aee9190612b43565b5090565b6040518060a00160405280612b05612b60565b8152602001612b12612b60565b8152602001600073ffffffffffffffffffffffffffffffffffffffff16815260200160008152602001600081525090565b5b80821115612b5c576000816000905550600101612b44565b5090565b6040518060a00160405280600073ffffffffffffffffffffffffffffffffffffffff1681526020016060815260200160008152602001606081526020016000151581525090565b6000612bba612bb5846136f5565b6136d0565b905082815260208101848484011115612bd257600080fd5b612bdd848285613861565b509392505050565b600081359050612bf481613db9565b92915050565b60008083601f840112612c0c57600080fd5b8235905067ffffffffffffffff811115612c2557600080fd5b602083019150836001820283011115612c3d57600080fd5b9250929050565b600082601f830112612c5557600080fd5b8135612c65848260208601612ba7565b91505092915050565b600081359050612c7d81613dd0565b92915050565b600081519050612c9281613dd0565b92915050565b600060208284031215612caa57600080fd5b6000612cb884828501612be5565b91505092915050565b60008060008060808587031215612cd757600080fd5b6000612ce587828801612be5565b9450506020612cf687828801612be5565b935050604085013567ffffffffffffffff811115612d1357600080fd5b612d1f87828801612c44565b925050606085013567ffffffffffffffff811115612d3c57600080fd5b612d4887828801612c44565b91505092959194509250565b600060208284031215612d6657600080fd5b600082013567ffffffffffffffff811115612d8057600080fd5b612d8c84828501612c44565b91505092915050565b600060208284031215612da757600080fd5b6000612db584828501612c6e565b91505092915050565b600060208284031215612dd057600080fd5b6000612dde84828501612c83565b91505092915050565b600080600080600060608688031215612dff57600080fd5b6000612e0d88828901612c6e565b955050602086013567ffffffffffffffff811115612e2a57600080fd5b612e3688828901612bfa565b9450945050604086013567ffffffffffffffff811115612e5557600080fd5b612e6188828901612bfa565b92509250509295509295909350565b60008060408385031215612e8357600080fd5b6000612e9185828601612c6e565b9250506020612ea285828601612c6e565b9150509250929050565b612eb581613819565b82525050565b612ec481613819565b82525050565b612ed38161382b565b82525050565b612ee28161382b565b82525050565b6000612ef382613726565b612efd818561373c565b9350612f0d818560208601613870565b612f1681613a0b565b840191505092915050565b6000612f2c82613726565b612f36818561374d565b9350612f46818560208601613870565b612f4f81613a0b565b840191505092915050565b6000612f6760138361374d565b9150612f7282613a1c565b602082019050919050565b6000612f8a601b8361374d565b9150612f9582613a45565b602082019050919050565b6000612fad600e8361374d565b9150612fb882613a6e565b602082019050919050565b6000612fd060348361374d565b9150612fdb82613a97565b604082019050919050565b6000612ff360268361374d565b9150612ffe82613ae6565b604082019050919050565b600061301660308361374d565b915061302182613b35565b604082019050919050565b600061303960318361374d565b915061304482613b84565b604082019050919050565b600061305c60198361374d565b915061306782613bd3565b602082019050919050565b600061307f602c8361374d565b915061308a82613bfc565b604082019050919050565b60006130a260148361374d565b91506130ad82613c4b565b602082019050919050565b60006130c560128361374d565b91506130d082613c74565b602082019050919050565b60006130e8601a8361374d565b91506130f382613c9d565b602082019050919050565b600061310b60208361374d565b915061311682613cc6565b602082019050919050565b600061312e602e8361374d565b915061313982613cef565b604082019050919050565b600061315160168361374d565b915061315c82613d3e565b602082019050919050565b6000613174600083613731565b915061317f82613d67565b600082019050919050565b600061319760278361374d565b91506131a282613d6a565b604082019050919050565b600060a0830160008301516131c56000860182612eac565b50602083015184820360208601526131dd8282612ee8565b91505060408301516131f26040860182613324565b506060830151848203606086015261320a8282612ee8565b915050608083015161321f6080860182612eca565b508091505092915050565b600060a0830160008301516132426000860182612eac565b506020830151848203602086015261325a8282612ee8565b915050604083015161326f6040860182613324565b50606083015184820360608601526132878282612ee8565b915050608083015161329c6080860182612eca565b508091505092915050565b600060a08301600083015184820360008601526132c482826131ad565b915050602083015184820360208601526132de82826131ad565b91505060408301516132f36040860182612eac565b5060608301516133066060860182613324565b5060808301516133196080860182613324565b508091505092915050565b61332d81613857565b82525050565b61333c81613857565b82525050565b600061334d82613167565b9150819050919050565b600060208201905061336c6000830184612ebb565b92915050565b60006060820190506133876000830186612ebb565b6133946020830185612ebb565b6133a16040830184613333565b949350505050565b60006040820190506133be6000830185612ebb565b81810360208301526133d08184612f21565b90509392505050565b60006060820190506133ee6000830186612ebb565b6133fb6020830185613333565b818103604083015261340d8184612f21565b9050949350505050565b600060208201905061342c6000830184612ed9565b92915050565b6000602082019050818103600083015261344b81612f5a565b9050919050565b6000602082019050818103600083015261346b81612f7d565b9050919050565b6000602082019050818103600083015261348b81612fa0565b9050919050565b600060208201905081810360008301526134ab81612fc3565b9050919050565b600060208201905081810360008301526134cb81612fe6565b9050919050565b600060208201905081810360008301526134eb81613009565b9050919050565b6000602082019050818103600083015261350b8161302c565b9050919050565b6000602082019050818103600083015261352b8161304f565b9050919050565b6000602082019050818103600083015261354b81613072565b9050919050565b6000602082019050818103600083015261356b81613095565b9050919050565b6000602082019050818103600083015261358b816130b8565b9050919050565b600060208201905081810360008301526135ab816130db565b9050919050565b600060208201905081810360008301526135cb816130fe565b9050919050565b600060208201905081810360008301526135eb81613121565b9050919050565b6000602082019050818103600083015261360b81613144565b9050919050565b6000602082019050818103600083015261362b8161318a565b9050919050565b600060a082019050818103600083015261364c818861322a565b90508181036020830152613660818761322a565b905061366f6040830186612ebb565b61367c6060830185613333565b6136896080830184613333565b9695505050505050565b600060208201905081810360008301526136ad81846132a7565b905092915050565b60006020820190506136ca6000830184613333565b92915050565b60006136da6136eb565b90506136e682826138d5565b919050565b6000604051905090565b600067ffffffffffffffff8211156137105761370f6139dc565b5b61371982613a0b565b9050602081019050919050565b600081519050919050565b600081905092915050565b600082825260208201905092915050565b600082825260208201905092915050565b600061376982613857565b915061377483613857565b9250827fffffffffffffffffffffffffffffffffffffffffffffffffffffffffffffffff038211156137a9576137a861394f565b5b828201905092915050565b60006137bf82613857565b91506137ca83613857565b9250826137da576137d961397e565b5b828204905092915050565b60006137f082613857565b91506137fb83613857565b92508282101561380e5761380d61394f565b5b828203905092915050565b600061382482613837565b9050919050565b60008115159050919050565b600073ffffffffffffffffffffffffffffffffffffffff82169050919050565b6000819050919050565b82818337600083830152505050565b60005b8381101561388e578082015181840152602081019050613873565b8381111561389d576000848401525b50505050565b600060028204905060018216806138bb57607f821691505b602082108114156138cf576138ce6139ad565b5b50919050565b6138de82613a0b565b810181811067ffffffffffffffff821117156138fd576138fc6139dc565b5b80604052505050565b600061391182613857565b91507fffffffffffffffffffffffffffffffffffffffffffffffffffffffffffffffff8214156139445761394361394f565b5b600182019050919050565b7f4e487b7100000000000000000000000000000000000000000000000000000000600052601160045260246000fd5b7f4e487b7100000000000000000000000000000000000000000000000000000000600052601260045260246000fd5b7f4e487b7100000000000000000000000000000000000000000000000000000000600052602260045260246000fd5b7f4e487b7100000000000000000000000000000000000000000000000000000000600052604160045260246000fd5b6000601f19601f8301169050919050565b7f57656464696e67206e6f74206372656174656400000000000000000000000000600082015250565b7f4e6f7420656e6f75676820657468657220696e2062616c616e63650000000000600082015250565b7f496e76616c69642072696e674964000000000000000000000000000000000000600082015250565b7f52696e67732068617665206e6f74206265656e2063726561746564206f72207760008201527f656464696e6720697320636f6d706c657465642e000000000000000000000000602082015250565b7f4f776e61626c653a206e6577206f776e657220697320746865207a65726f206160008201527f6464726573730000000000000000000000000000000000000000000000000000602082015250565b7f4174206c65617374206f6e65206f662074686520706172746e6572732069732060008201527f616c7265616479206d6172726965642e00000000000000000000000000000000602082015250565b7f52696e6773206861766520616c7265616479206265656e20637265617465642060008201527f666f7220746869732077656464696e672e000000000000000000000000000000602082015250565b7f57656464696e67206973206e6f7420636f6d706c657465642e00000000000000600082015250565b7f57656464696e67204944206973206e6f74206173736f6369617465642077697460008201527f6820612057656464696e672e0000000000000000000000000000000000000000602082015250565b7f53656e64696e672072696e6720746f2073656c66000000000000000000000000600082015250565b7f4164647265737320697320506172746e65720000000000000000000000000000600082015250565b7f52696e672068617320616c7265616479206265656e2073656e74000000000000600082015250565b7f4f776e61626c653a2063616c6c6572206973206e6f7420746865206f776e6572600082015250565b7f57656464696e6720686173206368616e676564207374617475732c2063616e6e60008201527f6f7420626520757064617465642e000000000000000000000000000000000000602082015250565b7f41646472657373206973206e6f7420506172746e657200000000000000000000600082015250565b50565b7f54686572652077617320616e206572726f722120457468657220776173206e6f60008201527f742073656e742e00000000000000000000000000000000000000000000000000602082015250565b613dc281613819565b8114613dcd57600080fd5b50565b613dd981613857565b8114613de457600080fd5b5056fea2646970667358221220e062926f9342074ddea774d605d257ff4b5653e2a878d01c563e2d480271f0d664736f6c63430008040033",
  "linkReferences": {},
  "deployedLinkReferences": {}
}